S01200004857505F48616E64496E2E7372656392
S1130000B2C00000CDC00000CBC00000C9C00000D9
S1130010C7C00000C5C00000C3C00000C1C00000CC
S1130020BFC00000BDC00000BBC00000B9C00000DC
S1130030B7C00000B5C00000B3C00000B1C00000EC
S1130040AFC00000C6C00000ABC00000A9C00000E3
S1130050A7C00000A5C00000A3C00000A1C000000C
S11300609FC000009DC000009BC0000099C000001C
S113007097C0000095C0000093C0000091C000002C
S11300808FC000008DC000008BC0000089C000003C
S113009087C0000085C0000083C0000081C000004C
S11300A07FC000007DC000007BC0000079C000005C
S11300B077C0000075C0000073C0000071C000006C
S11300C06FC000006DC000006BC0000069C000007C
S11300D067C0000065C0000063C0000061C000008C
S11300E05FC0000007634236B79BD8A71A39685629
S11300F018AEBAAB558C1D3CB7CC5763BD6DEDFD46
S1130100753EF6177231BF000000803F0800000002
S1130110BE922449123EABAAAA2ABECDCCCC4C3EF8
S113012000000080BEABAAAAAA3E00000000BF00E7
S11301300000803F0000000000084178D3BB4387E3
S1130140D1133D190E3CC3BD4282AD2B3E68EC82F7
S113015076BED98FE1A93E4C80EFFFBE01C4FF7F7C
S11301603F000000000011241FBECFEFD1E2DEBF2C
S1130170CDBF12E0A0E0B2E0E2EDFAE000E00BBF98
S113018002C007900D92AA30B107D9F722E0AAE085
S1130190B2E001C01D92AF30B207E1F7CFD097C4EF
S11301A02FCF82E080936F008EE190E090938900DE
S11301B080938800E1E8F0E08081886080838EE0AD
S11301C084B988E0809307019FE090930A0185B980
S11301D008951F920F920FB60F9211240BB60F922F
S11301E02F933F938F939F93AF93BF93EF93FF937B
S11301F0E0910A02F0E0E55FFD4F208188E090E0A5
S113020020FF02C02A9A01C02A98299A2998269583
S11302100197B1F7ABE0B1E08C91807F8C93E8E07B
S1130220F1E08081886080838081877F80838091F2
S11302300A0223E030E0281B310981E090E002C08B
S1130240880F991F2A95E2F78C9380910A0290E017
S1130250019683709078992324F401978C6F9F6F93
S1130260019680930A02FF91EF91BF91AF919F9104
S11302708F913F912F910F900BBE0F900FBE0F9057
S11302801F901895CF92DF92EF92FF921F93CF9316
S1130290DF936B017C01142F642F70E080E090E009
S11302A082D09B01AC0160E070E080E291E444D133
S11302B0A7019601DED08CD14AD0AB01C3E0D0E0D7
S11302C09A01ADECBCECE0D3FC01F695E795F6950C
S11302D0E795F695E795CF01880F991FEE0FFF1F5D
S11302E0EE0FFF1FEE0FFF1FE80FF91FCA018E1B51
S11302F09F0BFC01E050FE4F8081FE01E55FFD4F46
S113030080836AE070E0CA01ACD3AB012197C0F6E8
S1130310E3E0F0E0E11BF109E55FFD4F80818160DE
S11303208083E1E8F0E0808185608083DF91CF9174
S11303301F91FF90EF90DF90CF900895789431DF74
S113034041E06DEC7CEC86EF92E49CDFFFCF70D053
S113035088F09F5790F0B92F9927B751A0F0D1F0AA
S1130360660F771F881F991F1AF0BA95C9F712C034
S1130370B13081F077D0B1E0089574C0672F782F41
S11303808827B85F39F0B93FCCF3869577956795A0
S1130390B395D9F73EF490958095709561957F4F0C
S11303A08F4F9F4F0895E89409C097FB3EF49095B2
S11303B08095709561957F4F8F4F9F4F9923A9F03A
S11303C0F92F96E9BB279395F695879577956795C9
S11303D0B795F111F8CFFAF4BB0F11F460FF1BC00D
S11303E06F5F7F4F8F4F9F4F16C0882311F096E9A0
S11303F011C0772321F09EE8872F762F05C066234E
S113040071F096E8862F70E060E02AF09A95660F06
S1130410771F881FDAF7880F9695879597F90895BF
S113042057FD9058440F551F59F05F3F71F04795A1
S1130430880F97FB991F61F09F3F79F08795089586
S1130440121613061406551FF2CF4695F1DF08C0A5
S1130450161617061806991FF1CF869571056105C2
S113046008940895E894BB2766277727CB0197F96A
S113047008950BD063C154D128F059D118F09523B5
S113048009F0F7C025C11124EECFCADFA0F3959F70
S1130490D1F3950F50E0551F629FF001729FBB2767
S11304A0F00DB11D639FAA27F00DB11DAA1F649F13
S11304B06627B00DA11D661F829F2227B00DA11DC6
S11304C0621F739FB00DA11D621F839FA00D611D4C
S11304D0221F749F3327A00D611D231F849F600D6D
S11304E0211D822F762F6A2F11249F5750408AF0A6
S11304F0E1F088234AF0EE0FFF1FBB1F661F771F32
S1130500881F91505040A9F79E3F510570F0B1C02B
S1130510AACF5F3FECF3983EDCF386957795679519
S1130520B795F795E7959F5FC1F7FE2B880F911D4F
S11305309695879597F90895FA01EE0FFF1F309667
S11305402105310599F16115710561F48038BFE326
S11305509B0749F168949038810561F08038BFEFBA
S11305609B0741F0992342F5FF3FE1053105210541
S113057011F1E8940894E795D901AA2329F4AB2F43
S1130580BE2FF85FD0F310C0FF5F70F4A695E0F7BC
S1130590F73950F019F0FF3A38F49F779F930CD055
S11305A00F9007FC905808953EF092C060E070E010
S11305B080E89FE308954FE79F775F934F933F93BE
S11305C02F930FD12F913F914F915F9152DF25C00F
S11305D02FDFE0F09E37D8F09639B8F49E3848F40F
S11305E0672F782F8827985FF9CF86957795679539
S11305F093959539D0F3B62FB1706B0F711D811D92
S113060020F4879577956795939539C053C02BCF80
S113061019F40EF02EC026CF5BC00ADFC8F396385B
S1130620C0F707F80F92E8942BE33AEA48EB5FE748
S11306302EDF0F920F920F924DB75EB70F9211D12A
S1130640E4EEF0E048D04F915F91EF91FF91E59592
S1130650EE1FFF1F49F0FE57E0684427EE0F441FCA
S1130660FA95E1F74195550B83D00F9007FE77C0BB
S1130670089597F99F6780E870E060E00895882303
S113068071F4772321F09850872B762F07C06623C7
S113069011F499270DC09051862B70E060E02AF088
S11306A09A95660F771F881FDAF7880F96958795B6
S11306B097F908959F3F31F0915020F487957795ED
S11306C06795B795880F911D9695879597F9089525
S11306D09FEF80EC0895DF93CF931F930F93FF92C6
S11306E0EF92DF927B018C01689405C0DA2EEF0152
S11306F0CCDEFE01E894A591259135914591559163
S1130700AEF3EF01F3D0FE019701A801DA9479F773
S1130710DF90EF90FF900F911F91CF91DF9108959B
S113072000240A94161617061806090608950024CC
S11307300A9412161306140605060895092E039446
S1130740000C11F4882352F0BB0F40F4BF2B11F4BA
S113075060FF04C06F5F7F4F8F4F9F4F08959B01D1
S1130760AC0160E070E080E89FE313C182CFA2CFC8
S11307705FDEE8F39923D9F3940F511DBBF3915035
S1130780504094F059F0882332F0660F771F881F89
S113079091505040C1F79E3F510544F7880F911D79
S11307A09695879597F908955F3FACF0983E9CF035
S11307B0BB27869577956795B79508F4B1609395AF
S11307C0C1F7BB0F58F711F460FFE8CF6F5F7F4F9D
S11307D08F4F9F4FE3CF47CE0EF06CCF79CF689405
S11307E048CF26DEC8F39923D1F3C6F3DF93CF9322
S11307F01F930F93FF92C92FDD2788232AF0219797
S1130800660F771F881FDAF720E030E040E85FEBDF
S11308109FE3883920F0803E30F021968F7755D0C1
S1130820ECE0F1E003C051D0E9E3F1E054DF8B01E7
S1130830BE01EC01FB2E6F5771097595771F880B6C
S1130840990BB3DD28E132E741E35FE31EDEAF2D10
S11308509801AE01FF900F911F91CF91DF9146D087
S11308606DCFFA01DC01AA0FBB1F9B01AC01BF577E
S113087028F422273327442750781FC0B75188F41F
S1130880AB2F0024469537952795011CA395D2F3E9
S1130890002069F0220F331F441FB395DAF30DD003
S11308A013C061307105A0E88A07B94630F49B0192
S11308B0AC016627772788279078309621F020832B
S11308C031834283538308955058BB27AA270ED0FF
S11308D035CF26DF30F02BDF20F031F49F3F11F4C9
S11308E01EF4F6CE0EF4E095E7FBC3CEE92F98DDB7
S11308F080F3BA17620773078407950718F071F439
S11309009EF5B0CD0EF4E0950B2EBA2FA02D0B0161
S1130910B90190010C01CA01A0011124FF27591B40
S113092099F0593F50F4503E68F11A16F040A22F46
S1130930232F342F4427585FF3CF469537952795B7
S1130940A795F0405395C9F77EF41F16BA0B620BB6
S1130950730B840BBAF09150A1F0FF0FBB1F661FFD
S1130960771F881FC2F70EC0BA0F621F731F841F40
S113097048F4879577956795B795F7959E3F08F066
S1130980B3CF9395880F08F09927EE0F9795879525
S113099008950CD0D3CECBDE40F0C2DE30F021F48B
S11309A05F3F19F066CE51115ECD92CE39DD98F3DA
S11309B09923C9F35523B1F3951B550BBB27AA27DC
S11309C062177307840738F09F5F5F4F220F331F4E
S11309D0441FAA1FA9F333D00E2E3AF0E0E830D01A
S11309E091505040E695001CCAF729D0FE2F27D01D
S11309F0660F771F881FBB1F261737074807AB07EB
S1130A00B0E809F0BB0B802DBF01FF2793585F4F5F
S1130A102AF09E3F510568F02CCE25CD5F3FECF3C4
S1130A20983EDCF3869577956795B795F7959F5F24
S1130A30C9F7880F911D9695879597F90895E1E078
S1130A40660F771F881FBB1F621773078407BA07D7
S1130A5020F0621B730B840BBA0BEE1F88F7E09532
S1130A60089597FB072E16F4009406D077FD08D05E
S1130A701AD007FC05D03EF4909581959F4F0895B8
S1130A80709561957F4F0895A29FB001B39FC001F7
S1130A90A39F700D811D1124911DB29F700D811DA6
S1130AA01124911D0895AA1BBB1B51E107C0AA1F65
S1130AB0BB1FA617B70710F0A61BB70B881F991FFB
S1130AC05A95A9F780959095BC01CD010895F894A5
S1050AD0FFCF52
S10D0AD2FC60DAF266B6BEE0FEF640
S9030000FC
