:1000000071C000008CC000008AC0000088C00000E1
:1000100086C0000084C0000082C0000080C00000D4
:100020007EC000007CC000007AC0000078C00000E4
:1000300076C0000074C0000072C0000070C00000F4
:100040006EC000006CC000006AC0000068C0000004
:1000500057C1000064C0000062C0000061C0000021
:100060005EC000005CC000005AC0000058C0000024
:1000700056C0000054C0000052C0000050C0000034
:100080004EC000004CC000004AC0000048C0000044
:1000900046C0000044C0000042C0000040C0000054
:1000A0003EC000003CC000003AC0000038C0000064
:1000B00036C0000034C0000032C0000030C0000074
:1000C0002EC000002CC000002AC0000028C0000084
:1000D00026C0000024C0000022C0000020C0000094
:1000E0001EC0000011241FBECFEFD1E2DEBFCDBF86
:1000F00012E0A0E0B2E0E2E3F7E000E00BBF02C0F4
:1001000007900D92A631B107D9F722E0A6E1B2E03F
:1001100001C01D92AB31B207E1F73DD108C370CFEA
:100120001F920F920FB60F9211240BB60F922F93BE
:100130003F938F939F93AF93BF93EF93FF9388E881
:1001400086BDE0911A02F0E0E050FE4F908188E019
:1001500090FF02C02A9A01C02A98299A2998969558
:100160008150B1F7ABE0B1E08C91807F8C93E8E0F7
:10017000F1E08081886080838081877F80838091A7
:100180001A0223E030E0281B310981E090E002C030
:10019000880F991F2A95E2F78C9380911A0290E0BC
:1001A000019683709078992324F401978C6F9F6F48
:1001B000019680931A02FF91EF91BF91AF919F91A9
:1001C0008F913F912F910F900BBE0F900FBE0F900C
:1001D0001F9018953F924F925F926F927F928F92ED
:1001E0009F92AF92BF92CF92DF92EF92FF920F93C6
:1001F0001F93CF93DF93CDB7DEB72C970FB6F8944C
:10020000DEBF0FBECDBF6B017C0188E0E4E0F2E011
:10021000DE01119601900D928A95E1F7042F10E00E
:10022000F801EE0FFF1F81E090E08C0F9D1FE80F9B
:10023000F91F80819181BC0180E090E065D1A70128
:100240009601F0D135D169877A878B879C876E01BB
:1002500099E0C90ED11C0F2EF0E0AF2EF2E0BF2EB8
:10026000F02DE12CF12C83E090E04C01801A910AF2
:1002700001E0312C0F2EFAE04F2E512C612C712C05
:10028000F02DE2E0CE1AD108102F8E149F0409F051
:10029000132DF6012081318140E050E069857A8597
:1002A0008B859C8522D2CA01B901A30192011DD27E
:1002B000E62FF0E0E45FFD4F8081182BF5011193EC
:1002C0005F01FFEFEF1AFF0A84E0E816F104C9F6B8
:1002D0002C960FB6F894DEBF0FBECDBFDF91CF9145
:1002E0001F910F91FF90EF90DF90CF90BF90AF9054
:1002F0009F908F907F906F905F904F903F90089568
:100300001F920F920FB60F9211240BB60F922F93DC
:100310003F934F935F936F937F938F939F93AF938D
:10032000BF93EF93FF9380EE93EE909385008093BD
:1003300084006091160270911702809118029091CA
:10034000190242E047DF2AE037ED43E25CE36091C7
:10035000160270911702809118029091190244D0F0
:1003600060931602709317028093180290931902FB
:10037000FF91EF91BF91AF919F918F917F916F917D
:100380005F914F913F912F910F900BBE0F900FBE39
:100390000F901F90189578948EE084B988E0809330
:1003A00007019FE090930A0185B941E06DEC7CEC78
:1003B00086EF92E40FDF88E886BD84E085BD81E0AA
:1003C00080936E0080EE93EE90938500809384007E
:1003D000E1E8F0E0808184608083EFE6F0E08081F6
:1003E00081608083FFCF5058BB27AA270ED0E0C082
:1003F000D1D030F0D6D020F031F49F3F11F41EF46C
:10040000C6C00EF4E095E7FBBCC0E92FE2D080F354
:10041000BA17620773078407950718F071F49EF501
:10042000FAC00EF4E0950B2EBA2FA02D0B01B901E6
:1004300090010C01CA01A0011124FF27591B99F05A
:10044000593F50F4503E68F11A16F040A22F232F66
:10045000342F4427585FF3CF469537952795A795B6
:10046000F0405395C9F77EF41F16BA0B620B730B5D
:10047000840BBAF09150A1F0FF0FBB1F661F771FCE
:10048000881FC2F70EC0BA0F621F731F841F48F483
:10049000879577956795B795F7959E3F08F0B3CF09
:1004A0009395880F08F09927EE0F979587950895F3
:1004B00098D088F09F5790F0B92F9927B751A0F0A6
:1004C000D1F0660F771F881F991F1AF0BA95C9F7E8
:1004D00012C0B13081F09FD0B1E008959CC0672F69
:1004E000782F8827B85F39F0B93FCCF38695779598
:1004F0006795B395D9F73EF4909580957095619581
:100500007F4F8F4F9F4F0895E89409C097FB3EF4AB
:1005100090958095709561957F4F8F4F9F4F992350
:10052000A9F0F92F96E9BB279395F69587957795CE
:100530006795B795F111F8CFFAF4BB0F11F460FF8E
:100540001BC06F5F7F4F8F4F9F4F16C0882311F0E6
:1005500096E911C0772321F09EE8872F762F05C0FA
:10056000662371F096E8862F70E060E02AF09A9595
:10057000660F771F881FDAF7880F9695879597F98A
:10058000089597F99F6780E870E060E008959FEF15
:1005900080EC089500240A9416161706180609061A
:1005A000089500240A9412161306140605060895E9
:1005B000092E0394000C11F4882352F0BB0F40F471
:1005C000BF2B11F460FF04C06F5F7F4F8F4F9F4FB1
:1005D000089557FD9058440F551F59F05F3F71F033
:1005E0004795880F97FB991F61F09F3F79F087959A
:1005F0000895121613061406551FF2CF4695F1DF23
:1006000008C0161617061806991FF1CF86957105B2
:10061000610508940895E894BB2766277727CB01E6
:1006200097F908950BD0C4CFB5DF28F0BADF18F0E2
:10063000952309F0A6CFABCF1124EECFCADFA0F3EC
:10064000959FD1F3950F50E0551F629FF001729F67
:10065000BB27F00DB11D639FAA27F00DB11DAA1F86
:10066000649F6627B00DA11D661F829F2227B00DD3
:10067000A11D621F739FB00DA11D621F839FA00D5E
:10068000611D221F749F3327A00D611D231F849FAE
:10069000600D211D822F762F6A2F11249F57504005
:1006A0008AF0E1F088234AF0EE0FFF1FBB1F661FA0
:1006B000771F881F91505040A9F79E3F510570F059
:1006C00060CFAACF5F3FECF3983EDCF38695779539
:1006D0006795B795F795E7959F5FC1F7FE2B880F54
:1006E000911D9695879597F90895A1E21A2EAA1B58
:1006F000BB1BFD010DC0AA1FBB1FEE1FFF1FA217D2
:10070000B307E407F50720F0A21BB30BE40BF50BCE
:10071000661F771F881F991F1A9469F76095709557
:10072000809590959B01AC01BD01CF010895F8948F
:02073000FFCFF9
:10073200FFFFFFFF01000A006400E803FC60DAF239
:0607420066B6BEE0FEF603
:00000001FF
