:10000000B2C00000CDC00000CBC00000C9C00000DD
:10001000C7C00000C5C00000C3C00000C1C00000D0
:10002000BFC00000BDC00000BBC00000B9C00000E0
:10003000B7C00000B5C00000B3C00000B1C00000F0
:10004000AFC00000ADC00000ABC00000A9C0000000
:10005000A7C00000A5C00000A3C00000A2C000000F
:100060009FC000009DC000009BC0000099C0000020
:1000700097C0000095C0000093C0000091C0000030
:100080008FC000008DC000008BC0000089C0000040
:1000900087C0000085C0000083C0000081C0000050
:1000A0007FC000007DC000007BC0000079C0000060
:1000B00077C0000075C0000073C0000071C0000070
:1000C0006FC000006DC000006BC0000069C0000080
:1000D00067C0000065C0000063C0000061C0000090
:1000E0005FC0000007634236B79BD8A71A3968562D
:1000F00018AEBAAB558C1D3CB7CC5763BD6DEDFD4A
:10010000753EF6177231BF000000803F0800000006
:10011000BE922449123EABAAAA2ABECDCCCC4C3EFC
:1001200000000080BEABAAAAAA3E00000000BF00EB
:100130000000803F0000000000084178D3BB4387E7
:10014000D1133D190E3CC3BD4282AD2B3E68EC82FB
:1001500076BED98FE1A93E4C80EFFFBE01C4FF7F80
:100160003F000000000011241FBECFEFD1E2DEBF30
:10017000CDBF12E0A0E0B2E0ECE7FBE000E00BBF97
:1001800002C007900D92A631B107D9F722E0A6E18F
:10019000B2E001C01D92A831B207E1F767D1ECC40B
:1001A0002FCF1F920F920FB60F9211240BB60F9202
:1001B0002F933F934F935F936F937F938F939F936F
:1001C000AF93BF93CF93EF93FF93E0911602F0E0CC
:1001D000E050FE4FC08120E040E061E081E04ED180
:1001E0008C2F62D1ABE0B1E03C91E0911602F0E0DF
:1001F000EE0FFF1FE25FFD4F81E090E0AC01008059
:1002000002C0440F551F0A94E2F7242F20952323A0
:100210002C93E8E0F1E02081286020832081277F73
:1002200020832C910090160202C0880F991F0A9417
:10023000E2F7822B8C93809116028F5F83708093FC
:100240001602FF91EF91CF91BF91AF919F918F9146
:100250007F916F915F914F913F912F910F900BBEC6
:100260000F900FBE0F901F901895239AE7E0F1E0D2
:10027000808188608083EAE0F1E080818F60808304
:100280002B9A85B5836085BD81E080936E000895CB
:100290004F925F926F927F928F929F92AF92BF9296
:1002A000CF92DF92EF92FF921F93CF93DF9300D014
:1002B00000D0CDB7DEB74B015C01142F809117023F
:1002C000811104C081E080931702CFDFC501B40122
:1002D000C2D180E090E0EBD12B013C01612F70E0B6
:1002E00080E090E0E4D19B01AC0160E070E080E24E
:1002F00091E4CED26B017C019B01AC01C301B20140
:1003000064D269837A838B839C83A3019201C501A4
:10031000B401D4D04B015C0120E030E040E85FE361
:10032000C701B601CCD09B01AC01C501B4014DD2CF
:1003300092D180E090E0BBD19B01AC0169817A81D0
:100340008B819C81BCD087D16B017C01FB019B011F
:1003500010E00BC0ADECBCEC00D49C0136952795A9
:1003600036952795369527951F5F2115310591F70D
:10037000112381F31530D8F0612F70E064507109BA
:10038000072E000C880B990B94D19B01AC0160E007
:1003900070E080E291E47CD24B015C01B60180E028
:1003A00090E085D1A5019401EED055D1FB018FEFEE
:1003B00080930101109302010F2EF0E08F2EF2E0E6
:1003C0009F2EF02DE12CF12C84E090E06C01C11AFD
:1003D000D10811E0B12C9F01ADECBCECBED3AC0157
:1003E000569547955695479556954795CA01880F56
:1003F000991F440F551F440F551F440F551F480F99
:10040000591FDF01A41BB50BAC5FBD4F912FCE145C
:10041000DF0409F09B2D8C91982BD4019D934D0105
:100420009F01ADECBCEC99D3FC01F695E795F695F0
:10043000E795F695E795BFEFEB1AFB0A84E0E8161F
:10044000F10449F60F900F900F900F90DF91CF912C
:100450001F91FF90EF90DF90CF90BF90AF909F9053
:100460008F907F906F905F904F900895789440E0C8
:1004700066EB73EF8DE99FE30BDFFFCF94B19760DD
:1004800094B9220F220F2364440F440F440F422BD0
:1004900020E1629FB0011124642B20E2829FC00101
:1004A0001124682B6CBD08959FB7F8948EBD0DB4D0
:1004B00007FEFDCF8EB578949FBF08955058BB2797
:1004C000AA270ED048C139D130F03ED120F031F406
:1004D0009F3F11F41EF42EC10EF4E095E7FB24C1FA
:1004E000E92F4AD180F3BA1762077307840795078B
:1004F00018F071F49EF562C10EF4E0950B2EBA2F40
:10050000A02D0B01B90190010C01CA01A001112419
:10051000FF27591B99F0593F50F4503E68F11A16C5
:10052000F040A22F232F342F4427585FF3CF469556
:1005300037952795A795F0405395C9F77EF41F1678
:10054000BA0B620B730B840BBAF09150A1F0FF0F42
:10055000BB1F661F771F881FC2F70EC0BA0F621F2E
:10056000731F841F48F4879577956795B795F7951E
:100570009E3F08F0B3CF9395880F08F09927EE0FB0
:100580009795879508950CD0E6C0DED040F0D5D081
:1005900030F021F45F3F19F0C7C0511110C1CAC03B
:1005A000EBD098F39923C9F35523B1F3951B550B61
:1005B000BB27AA2762177307840738F09F5F5F4F36
:1005C000220F331F441FAA1FA9F333D00E2E3AF077
:1005D000E0E830D091505040E695001CCAF729D091
:1005E000FE2F27D0660F771F881FBB1F26173707E0
:1005F0004807AB07B0E809F0BB0B802DBF01FF2710
:1006000093585F4F2AF09E3F510568F08DC0D7C0C8
:100610005F3FECF3983EDCF3869577956795B79549
:10062000F7959F5FC9F7880F911D9695879597F964
:100630000895E1E0660F771F881FBB1F62177307DD
:100640008407BA0720F0621B730B840BBA0BEE1FF2
:1006500088F7E095089598D088F09F5790F0B92FCB
:100660009927B751A0F0D1F0660F771F881F991F07
:100670001AF0BA95C9F712C0B13081F09FD0B1E03D
:1006800008959CC0672F782F8827B85F39F0B93F4D
:10069000CCF3869577956795B395D9F73EF4909509
:1006A0008095709561957F4F8F4F9F4F0895E89487
:1006B00009C097FB3EF490958095709561957F4FAA
:1006C0008F4F9F4F9923A9F0F92F96E9BB27939558
:1006D000F695879577956795B795F111F8CFFAF468
:1006E000BB0F11F460FF1BC06F5F7F4F8F4F9F4F99
:1006F00016C0882311F096E911C0772321F09EE8F7
:10070000872F762F05C0662371F096E8862F70E05C
:1007100060E02AF09A95660F771F881FDAF7880F36
:100720009695879597F9089597F99F6780E870E007
:1007300060E008959FEF80EC089500240A94161657
:10074000170618060906089500240A9412161306BF
:10075000140605060895092E0394000C11F488234D
:1007600052F0BB0F40F4BF2B11F460FF04C06F5F69
:100770007F4F8F4F9F4F089557FD9058440F551F3F
:1007800059F05F3F71F04795880F97FB991F61F013
:100790009F3F79F087950895121613061406551F8A
:1007A000F2CF4695F1DF08C0161617061806991FF6
:1007B000F1CF86957105610508940895E894BB27EB
:1007C00066277727CB0197F908950BD0C4CFB5DF03
:1007D00028F0BADF18F0952309F0A6CFABCF11248B
:1007E000EECFCADFA0F3959FD1F3950F50E0551FD0
:1007F000629FF001729FBB27F00DB11D639FAA2776
:10080000F00DB11DAA1F649F6627B00DA11D661FC4
:10081000829F2227B00DA11D621F739FB00DA11DE5
:10082000621F839FA00D611D221F749F3327A00D9F
:10083000611D231F849F600D211D822F762F6A2F3B
:1008400011249F5750408AF0E1F088234AF0EE0FC0
:10085000FF1FBB1F661F771F881F91505040A9F7CD
:100860009E3F510570F060CFAACF5F3FECF3983EFA
:10087000DCF3869577956795B795F795E7959F5F34
:10088000C1F7FE2B880F911D9695879597F90895CE
:10089000FA01EE0FFF1F30962105310599F1611520
:1008A000710561F48038BFE39B0749F16894903883
:1008B000810561F08038BFEF9B0741F0992342F535
:1008C000FF3FE1053105210511F1E8940894E79512
:1008D000D901AA2329F4AB2FBE2FF85FD0F310C0A3
:1008E000FF5F70F4A695E0F7F73950F019F0FF3A82
:1008F00038F49F779F930CD00F9007FC9058089581
:100900003EF018CF60E070E080E89FE308954FE785
:100910009F775F934F933F932F939ED02F913F915B
:100920004F915F9152DF05C019F40EF0FDCE46CF16
:1009300001CF2ADFC8F39638C0F707F80F92E89482
:100940002BE33AEA48EB5FE74EDF0F920F920F92EC
:100950004DB75EB70F92C0D0E4EEF0E016D04F91E5
:100960005F91EF91FF91E595EE1FFF1F49F0FE5754
:10097000E0684427EE0F441FFA95E1F74195550BC7
:1009800032D00F9007FE26C00895DF93CF931F93B8
:100990000F93FF92EF92DF927B018C01689405C068
:1009A000DA2EEF011EDFFE01E894A5912591359125
:1009B00045915591AEF3EF0193DDFE019701A8013A
:1009C000DA9479F7DF90EF90FF900F911F91CF911C
:1009D000DF9108959B01AC0160E070E080E89FE347
:1009E000D2CDA2CEACC0D0DEE8F39923D9F3940FD8
:1009F000511DBBF39150504094F059F0882332F0D0
:100A0000660F771F881F91505040C1F79E3F5105D8
:100A100044F7880F911D9695879597F908955F3F44
:100A2000ACF0983E9CF0BB27869577956795B79577
:100A300008F4B1609395C1F7BB0F58F711F460FF4C
:100A4000E8CF6F5F7F4F8F4F9F4FE3CFB8CE0EF051
:100A500076C070CE689468CE97DEC8F39923D1F340
:100A6000C6F3DF93CF931F930F93FF92C92FDD2718
:100A700088232AF02197660F771F881FDAF720E076
:100A800030E040E85FEB9FE3883920F0803E30F0B3
:100A900021968F7714DDECE0F1E003C010DDE9E38F
:100AA000F1E073DF8B01BE01EC01FB2E6F57710982
:100AB0007595771F880B990BFCDD28E132E741E340
:100AC0005FE38FDEAF2D9801AE01FF900F911F9174
:100AD000CF91DF9105DD3FCEFA01DC01AA0FBB1FEC
:100AE0009B01AC01BF5728F42227332744275078B5
:100AF0001FC0B75188F4AB2F002446953795279532
:100B0000011CA395D2F3002069F0220F331F441F6C
:100B1000B395DAF30DD0D2CC61307105A0E88A0725
:100B2000B94630F49B01AC01662777278827907877
:100B3000309621F0208331834283538308959F3F71
:100B400031F0915020F4879577956795B795880F88
:100B5000911D9695879597F90895A29FB001B39F2F
:100B6000C001A39F700D811D1124911DB29F700DB6
:0C0B7000811D1124911D0895F894FFCF01
:100B7C00FFFFFFFFFC60DAF266B6BEE0FEF6030094
:060B8C0000000100020060
:00000001FF
