S01200004857505F48616E64496E2E7372656392
S113000071C000008CC000008AC0000088C00000DD
S113001086C0000084C0000082C0000080C00000D0
S11300207EC000007CC000007AC0000078C00000E0
S113003076C0000074C0000072C0000070C00000F0
S11300406EC000006CC000006AC0000068C0000000
S11300503DC2000064C0000062C000008FC0000008
S113006069C200005CC000005AC0000058C0000013
S113007056C0000054C0000052C0000050C0000030
S11300804EC000004CC000004AC0000048C0000040
S113009046C0000044C0000042C0000094C20000FA
S11300A03EC000003CC000003AC0000038C0000060
S11300B036C0000034C0000032C0000030C0000070
S11300C02EC000002CC000002AC0000028C0000080
S11300D026C0000024C0000022C0000020C0000090
S11300E01EC0000011241FBECFEFD1E2DEBFCDBF82
S11300F012E0A0E0B2E0E2EEFEE000E00BBF02C0DE
S113010007900D92A232B107D9F722E0A2E2B2E041
S113011001C01D92A333B207E1F707D2E0C670CF46
S1130120ABE0B1E03C91E0912202F0E0E25EFD4FF1
S113013081E090E0AC01008002C0440F551F0A9496
S1130140E2F7242F209523232C93E8E0F1E020818B
S1130150286020832081277F20832C910090220215
S113016002C0880F991F0A94E2F7822B8C93809126
S113017022028F5F83708093220208951F920F9250
S11301800FB60F9211240BB60F922F933F934F93F8
S11301905F936F937F938F939F93AF93BF93CF930B
S11301A0EF93FF9388E886BDE0912202F0E0EA5FD6
S11301B0FD4FC08120E040E061E081E0E8D160E9EA
S11301C070E08C2FFAD1FF91EF91CF91BF91AF9155
S11301D09F918F917F916F915F914F913F912F915B
S11301E00F900BBE0F900FBE0F901F901895E7E075
S11301F0F1E0808188608083EAE0F1E080818F60B3
S113020080832B9A88E886BD85B5846085BD81E0AE
S113021080936E0008952F923F924F925F926F9257
S11302207F928F929F92AF92BF92CF92DF92EF9282
S1130230FF920F931F93CF93DF93CDB7DEB72E9723
S11302400FB6F894DEBF0FBECDBF6B017C01942EB8
S113025080912302811104C081E080932302C7DFCF
S11302608AE0EAE0F2E0DE01119601900D928A95AF
S1130270E1F7A92CB12CF501EE0FFF1F81E090E00E
S11302808C0F9D1FE80FF91F80819181BC0180E0D4
S113029090E0C9D3A701960154D499D36B877C8786
S11302A08D879E87FE0131967F010F2EF6E0CF2EBB
S11302B0F2E0DF2EF02D00E010E00F2EFAE04F2EDA
S11302C0512C612C712CF02D812C22242394312C5F
S11302D0F701219131917F0140E050E06B857C85ED
S11302E08D859E8591D4CA01B901A30192018CD454
S11302F0E62FF0E0EC5EFD4F20810A151B0531F47A
S1130300922D911001C0932D892F01C0882D822B2D
S1130310F60181936F010F5F1F4F04301105C1F681
S11303202E960FB6F894DEBF0FBECDBFDF91CF91EE
S11303301F910F91FF90EF90DF90CF90BF90AF90FF
S11303409F908F907F906F905F904F903F902F90F1
S113035008959DEC899F912D1124969596959695D7
S1130360392F330F232F220F220F230F821B20E15B
S1130370929F800D112408950F931F93CF93DF93C1
S11303801F92CDB7DEB78C0160EA76E881E090E099
S1130390EBD184E0898321E030E0AE014F5F5F4F11
S11303A06EE088E602D20F90DF91CF911F910F91FA
S11303B00895EF92FF920F931F93CF93DF9300D092
S11303C01F92CDB7DEB7E82EF62E89014C3330F4F8
S11303D08BE3861718F0E7E1EE1528F480E090E04F
S11303E0F801099511C0842FB4DF89838F2DB1DF03
S11303F08A838E2DAEDF8B8323E030E0AE014F5F26
S11304005F4F60E088E6D1D10F900F900F90DF919D
S1130410CF911F910F91FF90EF9008959C0143E0BD
S113042050E060E088E6DFC1089580EC97EC90939B
S1130430850080938400E1E8F0E08081846080831B
S1130440EFE6F0E08081816080830895CF92DF92AF
S1130450EF92FF92CF93FC01C0818181682F629556
S11304606F70660F962F990F990F690F8F70680F31
S113047070E080E090E0D9D26B017C018C2F8295F2
S11304808F70880F982F990F990F890FCF708C0F49
S1130490682F70E080E090E0C6D220E030E048ECC5
S11304A052E42DD29B01AC01C701B601C4D142E094
S11304B0B2DECF91FF90EF90DF90CF90089525E1C9
S11304C032E040E060E080E074CF08951F920F9224
S11304D00FB60F9211240BB60F922F933F934F93A5
S11304E05F936F937F938F939F93AF93BF93EF9398
S11304F0FF9386E292E092DF80EC97EC9093850084
S113050080938400FF91EF91BF91AF919F918F9160
S11305107F916F915F914F913F912F910F900BBEFF
S11305200F900FBE0F901F90189578948FE592E06E
S113053023DFFFCF1F920F920FB60F9211240BB639
S11305400F922F933F934F935F936F937F938F9368
S11305509F93AF93BF93EF93FF938EB5E0912402E3
S1130560F091250290E00995FF91EF91BF91AF9131
S11305709F918F917F916F915F914F913F912F91B7
S11305800F900BBE0F900FBE0F901F90189594B153
S1130590976094B9220F220F236C440F440F440F29
S11305A0422B20E1629FB0011124642B20E2829F40
S11305B0C0011124682B6CBD0895709325026093CB
S11305C024028EBD08951F920F920FB60F9211242C
S11305D00BB60F922F933F934F935F936F937F9339
S11305E08F939F93AF93BF93EF93FF938091B90041
S11305F0887F883109F128F4883061F0803199F0DE
S1130600A0C0803409F1803509F45CC0883209F057
S113061098C01EC080912E02880F8093BB0085E88D
S11306208093BC008EC080912E02880F81608093DD
S1130630BB0085E88093BC00809126028093BB00B8
S113064085E88093BC007DC085EC8093BC0079C0B4
S113065080912D02811132C020912702309128020D
S11306608091290290912A0228173907CCF420910D
S11306702B0230912C028091270290912802AC0128
S11306804F5F5F4F5093280240932702F901E80F10
S1130690F91F80818093BB0085E88093BC0051C022
S11306A085E98093BC00E0912402F0912502309703
S11306B009F447C080E090E0099543C085EA80933F
S11306C0BC003FC040912B0250912C028091270224
S11306D0909128029C012F5F3F4F30932802209372
S11306E027022091BB00FA01E80FF91F2083209113
S11306F02702309128028091290290912A0228171A
S1130700390724F485EC8093BC001BC085E88093F2
S1130710BC00ECEBF0E080818823ECF785E9809362
S1130720BC00E0912402F0912502309729F08091D9
S11307302B0290912C02099580912B0290912C020E
S113074036D3FF91EF91BF91AF919F918F917F919C
S11307506F915F914F913F912F910F900BBE0F902E
S11307600FBE0F901F9018959B01AC011092B90019
S113077060E070E880E790E069D2BA01A9014051D5
S1130780510961097109DB01CA011AF40196A11D1D
S1130790B11DB595A79597958795E8EBF0E0808313
S11307A085E08093BC00808108950F931F9310927D
S11307B02D0280932E026093260250932C024093C4
S11307C02B02109228021092270230932A022093BF
S11307D02902109325020093240285EA8093BC0029
S11307E01F910F9108950F931F93CF93DF93EA0105
S11307F0890191E090932D0280932E02609326024A
S1130800CA0140D290932C0280932B0210922802AA
S113081010922702D0932A02C09329021093250232
S11308200093240285EA8093BC00DF91CF911F914D
S11308300F9108955058BB27AA270ED048C139D12B
S113084030F03ED120F031F49F3F11F41EF42EC15C
S11308500EF4E095E7FB24C1E92F4AD180F3BA17DF
S1130860620773078407950718F071F49EF562C157
S11308700EF4E0950B2EBA2FA02D0B01B9019001B7
S11308800C01CA01A0011124FF27591B99F0593FFB
S113089050F4503E68F11A16F040A22F232F342F43
S11308A04427585FF3CF469537952795A795F04091
S11308B05395C9F77EF41F16BA0B620B730B840BA6
S11308C0BAF09150A1F0FF0FBB1F661F771F881F5E
S11308D0C2F70EC0BA0F621F731F841F48F48795B6
S11308E077956795B795F7959E3F08F0B3CF9395A5
S11308F0880F08F09927EE0F9795879508950CD0E7
S1130900E6C0DED040F0D5D030F021F45F3F19F0DE
S1130910C7C0511110C1CAC0EBD098F39923C9F3D1
S11309205523B1F3951B550BBB27AA2762177307F1
S1130930840738F09F5F5F4F220F331F441FAA1FA5
S1130940A9F333D00E2E3AF0E0E830D09150504065
S1130950E695001CCAF729D0FE2F27D0660F771F13
S1130960881FBB1F261737074807AB07B0E809F0F5
S1130970BB0B802DBF01FF2793585F4F2AF09E3F8A
S1130980510568F08DC0D7C05F3FECF3983EDCF3AF
S1130990869577956795B795F7959F5FC9F7880F03
S11309A0911D9695879597F90895E1E0660F771F55
S11309B0881FBB1F621773078407BA0720F0621BE6
S11309C0730B840BBA0BEE1F88F7E095089598D04B
S11309D088F09F5790F0B92F9927B751A0F0D1F024
S11309E0660F771F881F991F1AF0BA95C9F712C0AE
S11309F0B13081F09FD0B1E008959CC0672F782F6B
S1130A008827B85F39F0B93FCCF386957795679519
S1130A10B395D9F73EF490958095709561957F4F85
S1130A208F4F9F4F0895E89409C097FB3EF490952B
S1130A308095709561957F4F8F4F9F4F9923A9F0B3
S1130A40F92F96E9BB279395F69587957795679542
S1130A50B795F111F8CFFAF4BB0F11F460FF1BC086
S1130A606F5F7F4F8F4F9F4F16C0882311F096E919
S1130A7011C0772321F09EE8872F762F05C06623C7
S1130A8071F096E8862F70E060E02AF09A95660F80
S1130A90771F881FDAF7880F9695879597F9089539
S1130AA097F99F6780E870E060E008959FEF80EC1D
S1130AB0089500240A9416161706180609060895C0
S1130AC000240A9412161306140605060895092E26
S1130AD00394000C11F4882352F0BB0F40F4BF2B95
S1130AE011F460FF04C06F5F7F4F8F4F9F4F0895D5
S1130AF057FD9058440F551F59F05F3F71F04795CB
S1130B00880F97FB991F61F09F3F79F087950895AF
S1130B10121613061406551FF2CF4695F1DF08C0CE
S1130B20161617061806991FF1CF869571056105EB
S1130B3008940895E894BB2766277727CB0197F993
S1130B4008950BD0C4CFB5DF28F0BADF18F0952391
S1130B5009F0A6CFABCF1124EECFCADFA0F3959F47
S1130B60D1F3950F50E0551F629FF001729FBB2790
S1130B70F00DB11D639FAA27F00DB11DAA1F649F3C
S1130B806627B00DA11D661F829F2227B00DA11DEF
S1130B90621F739FB00DA11D621F839FA00D611D75
S1130BA0221F749F3327A00D611D231F849F600D96
S1130BB0211D822F762F6A2F11249F5750408AF0CF
S1130BC0E1F088234AF0EE0FFF1FBB1F661F771F5B
S1130BD0881F91505040A9F79E3F510570F060CF97
S1130BE0AACF5F3FECF3983EDCF386957795679543
S1130BF0B795F795E7959F5FC1F7FE2B880F911D79
S1130C009695879597F90895A1E21A2EAA1BBB1B06
S1130C10FD010DC0AA1FBB1FEE1FFF1FA217B307C4
S1130C20E407F50720F0A21BB30BE40BF50B661FDA
S1130C30771F881F991F1A9469F76095709580959E
S1130C4090959B01AC01BD01CF010895052E97FB42
S1130C5016F400940FD057FD05D0D6DF07FC02D060
S1130C6046F408C050954095309521953F4F4F4F1D
S1130C705F4F089590958095709561957F4F8F4F44
S1130C809F4F0895CF93DF938230910510F482E053
S1130C9090E0E0913102F091320220E030E0C0E0D7
S1130CA0D0E0309711F14081518148175907C0F0C5
S1130CB04817590761F482819381209719F09B8327
S1130CC08A832BC0909332028093310226C021156F
S1130CD0310519F04217530718F49A01BE01DF01D8
S1130CE0EF010280F381E02DDCCF2115310509F1FC
S1130CF0281B390B2430310590F412968D919C9168
S1130D0013976115710521F0FB019383828304C05D
S1130D109093320280933102FD01329644C0FD016A
S1130D20E20FF31F81939193225031092D933C9349
S1130D303AC020912F0230913002232B41F42091AC
S1130D400202309103023093300220932F0220914B
S1130D500002309101022115310541F42DB73EB74F
S1130D604091040250910502241B350BE0912F029F
S1130D70F0913002E217F307A0F42E1B3F0B281763
S1130D80390778F0AC014E5F5F4F2417350748F000
S1130D904E0F5F1F5093300240932F028193919323
S1130DA002C0E0E0F0E0CF01DF91CF9108950F930E
S1130DB01F93CF93DF93009709F48CC0FC01329703
S1130DC01382128200913102109132020115110531
S1130DD081F420813181820F931F20912F02309161
S1130DE030022817390779F5F0933002E0932F0287
S1130DF071C0D80140E050E0AE17BF0750F412961E
S1130E002D913C911397AD012115310509F1D901BB
S1130E10F3CF9D01DA013383228360817181860FD0
S1130E20971F8217930769F4EC0128813981260FF3
S1130E30371F2E5F3F4F318320838A819B819383A9
S1130E408283452B29F4F0933202E093310242C0AD
S1130E501396FC93EE931297ED01499159919E01DB
S1130E60240F351FE217F30771F480819181840FF9
S1130E70951F029611969C938E938281938113966B
S1130E809C938E931297E0E0F0E0D80112968D9136
S1130E909C911397009719F0F8018C01F6CF8D916E
S1130EA09C9198012E5F3F4F820F931F20912F0238
S1130EB0309130022817390769F4309729F41092D9
S1130EC032021092310202C0138212821093300255
S1130ED000932F02DF91CF911F910F910895F89401
S1050EE0FFCF3E
S1130EE2000033022000FFFFFFFF01000A0064003C
S1130EF2E8031027FC60DAF266B6BEE0FEF60300F1
S1050F020102E6
S9030000FC
