:1000000071C000008CC000008AC0000088C00000E1
:1000100086C0000084C0000082C0000080C00000D4
:100020007EC000007CC000007AC0000078C00000E4
:1000300076C0000074C0000072C0000070C00000F4
:100040006EC000006CC000006AC0000068C0000004
:1000500066C0000064C0000062C00000A4C00000D0
:100060005EC000002BC3000054C3000058C0000055
:1000700056C0000054C0000052C0000050C0000034
:100080004EC000004CC000004AC0000048C0000044
:1000900046C0000044C0000042C00000F9C100009A
:1000A0003EC000003CC000003AC0000038C0000064
:1000B00036C0000034C0000032C0000030C0000074
:1000C0002EC000002CC000002AC0000028C0000084
:1000D00026C0000024C0000022C0000020C0000094
:1000E0001EC0000011241FBECFEFD1E2DEBFCDBF86
:1000F00012E0A0E0B2E0ECE0FAE000E00BBF02C0EA
:1001000007900D92AC31B107D9F723E0ACE1B2E032
:1001100001C01D92A233B207E1F74FD175C470CF71
:10012000239AE7E0F1E0808188608083EAE0F1E0F3
:1001300080818F6080832B9A85B5836085BD81E047
:1001400080936E000895ABE0B1E03C91E0911C0219
:10015000F0E0EE0FFF1FEC5EFD4F81E090E0AC01A0
:10016000008002C0440F551F0A94E2F7242F209507
:1001700023232C93E8E0F1E0208128602083208174
:10018000277F20832C9100901C0202C0880F991FAA
:100190000A94E2F7822B8C9380911C028F5F83700C
:1001A00080931C0208951F920F920FB60F92112494
:1001B0000BB60F922F933F934F935F936F937F9361
:1001C0008F939F93AF93BF93CF93EF93FF93E09160
:1001D0001C02F0E0EA5FFD4FC08120E040E061E0FA
:1001E00081E036D18C2F4AD1AEDFFF91EF91CF91D4
:1001F000BF91AF919F918F917F916F915F914F913F
:100200003F912F910F900BBE0F900FBE0F901F903C
:1002100018950F931F93CF93DF93EC0180911D02EC
:10022000811104C07DDF81E080931D029E01E0E02A
:100230000BC0ADECBCECACD29C0136952795369545
:10024000279536952795EF5F2115310591F7EE2318
:1002500081F306E012E040E050E0F0E04E175F0767
:10026000F4F49E01ADECBCEC93D2969587959695EF
:100270008795969587959C01220F331F880F991FAC
:10028000880F991F880F991F820F931FDE01A81BEB
:10029000B90BA65FBD4F8C91D8018C9302C0D801D9
:1002A0001C929E01ADECBCEC73D2EC01D695C795C7
:1002B000D695C795D695C7954F5F5F4F0F5F1F4F78
:1002C0004430510559F6DF91CF911F910F91089558
:1002D0009DEC899F912D1124969596959695392F91
:1002E000330F232F220F220F230F821B20E1929F17
:1002F000800D11240895EF92FF920F931F93CF93D7
:10030000DF9300D01F92CDB7DEB7E82EF62E89011D
:100310004C3330F48BE3861718F0E7E1EE1528F440
:1003200080E090E0F801099511C0842FD1DF898326
:100330008F2DCEDF8A838E2DCBDF8B8323E030E0C1
:10034000AE014F5F5F4F60E088E673D10F900F9072
:100350000F90DF91CF911F910F91FF90EF90089533
:100360009C0143E050E060E088E681C1089581E0AF
:1003700080931E020895982F92959F70990F292FB0
:10038000220F220F920F8F70890F08951F93CF9322
:10039000DF93EC0181E080931E028981ECDF182F4E
:1003A0008881E9DF90E024E6129F800D911D1124E1
:1003B00030DFDF91CF911F910895789427EB31E0E2
:1003C00040E065E18AE097DF80911E028823E1F337
:1003D00010921E0286EC91E0C3DFF6CFFC01EF57CE
:1003E000FF4F2081422F50E031973081FA01E31B0B
:1003F000F109EF77FF27EF37F10531F4FC01E05801
:10040000FF4F3F5F3F773083FC01E40FF51F6083B0
:10041000FC01EF57FF4F2F5F2F7720830895FC01DA
:10042000E058FF4F208131963081321779F0FC017E
:10043000E20FF11D2081FB012083FC01E058FF4FFA
:1004400080818F5F8F77808381E0089580E00895B9
:1004500094B1976094B9220F220F2364440F440F84
:10046000440F422B20E1629FB0011124642B20E253
:10047000829FC0011124682B6CBD08959FB7F8942A
:100480008EBD0DB407FEFDCF8EB578949FBF089545
:100490001F920F920FB60F9211240BB60F922F934B
:1004A0003F934F935F936F937F938F939F93AF93FC
:1004B000BF93EF93FF938091B900887F883109F152
:1004C00028F4883061F0803199F0A0C0803409F1BF
:1004D000803509F45CC0883209F098C01EC0809154
:1004E0002702880F8093BB0085E88093BC008EC0F4
:1004F00080912702880F81608093BB0085E88093FC
:10050000BC0080911F028093BB0085E88093BC00F3
:100510007DC085EC8093BC0079C08091260281115A
:1005200032C02091200230912102809122029091CC
:10053000230228173907CCF4209124023091250298
:100540008091200290912102AC014F5F5F4F509348
:10055000210240932002F901E80FF91F8081809366
:10056000BB0085E88093BC0051C085E98093BC0046
:10057000E0912802F0912902309709F447C080E009
:1005800090E0099543C085EA8093BC003FC040914C
:1005900024025091250280912002909121029C0119
:1005A0002F5F3F4F30932102209320022091BB0008
:1005B000FA01E80FF91F20832091200230912102D7
:1005C00080912202909123022817390724F485ECA8
:1005D0008093BC001BC085E88093BC00ECEBF0E08E
:1005E00080818823ECF785E98093BC00E0912802A4
:1005F000F0912902309729F08091240290912502F0
:100600000995809124029091250266D1FF91EF9186
:10061000BF91AF919F918F917F916F915F914F911A
:100620003F912F910F900BBE0F900FBE0F901F9018
:1006300018950F931F9310922602809327026093C0
:100640001F0250932502409324021092210210921F
:100650002002309323022093220210932902009358
:10066000280285EA8093BC001F910F9108950F9393
:100670001F93CF93DF93EA01890191E090932602C3
:100680008093270260931F02CA0191D090932502A4
:10069000809324021092210210922002D093230210
:1006A000C0932202109329020093280285EA8093C6
:1006B000BC00DF91CF911F910F9108951F920F926F
:1006C0000FB60F9211240BB60F922F933F934F93B7
:1006D0005F936F937F938F939F93AF93BF93EF93AA
:1006E000FF936091C6008AE292E078DEFF91EF917D
:1006F000BF91AF919F918F917F916F915F914F913A
:100700003F912F910F900BBE0F900FBE0F901F9037
:1007100018951F920F920FB60F9211240BB60F92DD
:100720002F933F934F935F936F937F938F939F93F9
:10073000AF93BF93EF93FF93CF93DF931F92CDB708
:10074000DEB7BE016F5F7F4F8CEA92E068DE8823E0
:1007500021F089818093C60005C0E1ECF0E0808142
:100760008F7D80830F90DF91CF91FF91EF91BF91AB
:10077000AF919F918F917F916F915F914F913F9139
:100780002F910F900BBE0F900FBE0F901F901895DA
:10079000A29FB001B39FC001A39F700D811D1124C2
:1007A000911DB29F700D811D1124911D0895CF934D
:1007B000DF938230910510F482E090E0E091300305
:1007C000F091310320E030E0C0E0D0E0309711F14B
:1007D0004081518148175907C0F04817590761F403
:1007E00082819381209719F09B838A832BC09093F9
:1007F00031038093300326C02115310519F04217CB
:10080000530718F49A01BE01DF01EF010280F38162
:10081000E02DDCCF2115310509F1281B390B2430DF
:10082000310590F412968D919C9113976115710585
:1008300021F0FB019383828304C090933103809362
:100840003003FD01329644C0FD01E20FF31F819396
:100850009193225031092D933C933AC020912E035D
:1008600030912F03232B41F4209102023091030297
:1008700030932F0320932E03209100023091010228
:100880002115310541F42DB73EB740910402509136
:100890000502241B350BE0912E03F0912F03E21784
:1008A000F307A0F42E1B3F0B2817390778F0AC0193
:1008B0004E5F5F4F2417350748F04E0F5F1F509370
:1008C0002F0340932E038193919302C0E0E0F0E068
:1008D000CF01DF91CF9108950F931F93CF93DF93B3
:1008E000009709F48CC0FC013297138212820091A8
:1008F0003003109131030115110581F420813181FC
:10090000820F931F20912E0330912F032817390750
:1009100079F5F0932F03E0932E0371C0D80140E0E6
:1009200050E0AE17BF0750F412962D913C911397EB
:10093000AD012115310509F1D901F3CF9D01DA018E
:100940003383228360817181860F971F82179307FB
:1009500069F4EC0128813981260F371F2E5F3F4F44
:10096000318320838A819B8193838283452B29F461
:10097000F0933103E093300342C01396FC93EE935F
:100980001297ED01499159919E01240F351FE217ED
:10099000F30771F480819181840F951F029611965F
:1009A0009C938E938281938113969C938E9312973E
:1009B000E0E0F0E0D80112968D919C91139700979A
:1009C00019F0F8018C01F6CF8D919C9198012E5F62
:1009D0003F4F820F931F20912E0330912F03281732
:1009E000390769F4309729F41092310310923003DB
:1009F00002C01382128210932F0300932E03DF9103
:0C0A0000CF911F910F910895F894FFCF43
:100A0C00000032032000FFFFFFFFFC60DAF266B645
:0C0A1C00BEE0FEF6030000000100020036
:00000001FF
